:1000000045C0000060C000005EC000005CC0000091
:100010005AC0000058C0000056C0000054C0000084
:1000200052C0000050C000004EC000004CC0000094
:100030004AC000007EC0000046C0000044C000006E
:1000400042C0000040C000003EC000003CC00000B4
:100050003AC0000038C0000036C0000034C00000C4
:1000600032C0000030C000002EC000002CC00000D4
:100070002AC0000028C0000026C0000024C00000E4
:1000800022C0000020C000001EC0000011241FBEBE
:10009000CFEFD0E4DEBFCDBF11E0A0E0B1E0E4E6F9
:1000A000F3E000E00BBF02C007900D92A430B1074F
:1000B000D9F721E0A4E0B1E001C01D92A031B20760
:1000C000E1F7FCD04DC19CCF60930001709301011A
:1000D00080930201909303016093040170930501E2
:1000E000809306019093070108958BE0809381002F
:1000F0008DE790E0909389008093880082E0809360
:100100006F00109285001092840080910001909100
:100110000101A0910201B091030180930401909329
:100120000501A0930601B09307018FB780688FBFC8
:1001300008951F920F920FB60F9211248F939F93E1
:10014000AF93BF938091040190910501A0910601A6
:10015000B09107010197A109B1098093040190931F
:100160000501A0930601B0930701892B8A2B8B2BE5
:1001700099F481E080930801809100019091010140
:10018000A0910201B09103018093040190930501B5
:10019000A0930601B0930701BF91AF919F918F91FA
:1001A0000F900FBE0F901F90189580910C01813019
:1001B00051F028F0823059F0833069F010C081E0AE
:1001C00080930C0117C082E080930C0117C083E07C
:1001D00080930C0117C081E080930C010BC081302B
:1001E00049F028F0823051F0833079F40BC010923E
:1001F0000D01089581E080930D01089582E08093C0
:100200000D01089584E080930D01089580910B0104
:10021000813041F018F0823049F00CC081E08093C9
:100220000B0111C082E080930B0111C081E080932B
:100230000B0109C0813039F018F0823051F407C049
:1002400010920A01089588E080930A01089510929F
:100250000A01089580910E01811109C090910D014C
:1002600080910A01892B90910901892B85B9089504
:1002700080910F01813041F018F0823049F00EC0BA
:1002800081E080930F0113C082E080930F0113C0BF
:10029000029B11C081E080930F0109C0813039F0C9
:1002A00018F0823051F407C010920901089580E1DE
:1002B00080930901089510920901089511B88FEFF4
:1002C00082B984B915B862E070E080E090E0FCDEAD
:1002D0000CDF10920C0110920B0110920E01C12C38
:1002E000D12C7601412C512C3201812C912C5401BE
:1002F0000FC05BDF412C512C320188EE881683E061
:100300009806A104B10420F081DF812C912C5401C6
:1003100082E0C816D104E104F10420F0A9DFC12C69
:10032000D12C760197DF809108018823E1F31092A8
:10033000080182E0480E511C611C711C82E0880E8D
:10034000911CA11CB11C82E0C80ED11CE11CF11C47
:100350008CE2481681E058066104710470F2C9CF3E
:04036000F894FFCF3F
:040364000100000094
:00000001FF
